{
  "_format": "hh-sol-artifact-1",
  "contractName": "EHR",
  "sourceName": "contracts/EHR.sol",
  "abi": [
    {
      "anonymous": false,
      "inputs": [
        {
          "indexed": false,
          "internalType": "address",
          "name": "doctorID",
          "type": "address"
        }
      ],
      "name": "DoctorAdded",
      "type": "event"
    },
    {
      "anonymous": false,
      "inputs": [
        {
          "indexed": false,
          "internalType": "address",
          "name": "patientID",
          "type": "address"
        }
      ],
      "name": "PatientAdded",
      "type": "event"
    },
    {
      "anonymous": false,
      "inputs": [
        {
          "indexed": false,
          "internalType": "string",
          "name": "cid",
          "type": "string"
        },
        {
          "indexed": false,
          "internalType": "address",
          "name": "patientID",
          "type": "address"
        },
        {
          "indexed": false,
          "internalType": "address",
          "name": "doctorID",
          "type": "address"
        }
      ],
      "name": "RecordAdded",
      "type": "event"
    },
    {
      "inputs": [],
      "name": "addDoctor",
      "outputs": [],
      "stateMutability": "nonpayable",
      "type": "function"
    },
    {
      "inputs": [
        {
          "internalType": "address",
          "name": "_patientID",
          "type": "address"
        }
      ],
      "name": "addPatient",
      "outputs": [],
      "stateMutability": "nonpayable",
      "type": "function"
    },
    {
      "inputs": [
        {
          "internalType": "string",
          "name": "_cid",
          "type": "string"
        },
        {
          "internalType": "address",
          "name": "_patientID",
          "type": "address"
        }
      ],
      "name": "addRecord",
      "outputs": [],
      "stateMutability": "nonpayable",
      "type": "function"
    },
    {
      "inputs": [
        {
          "internalType": "address",
          "name": "",
          "type": "address"
        }
      ],
      "name": "doctors",
      "outputs": [
        {
          "internalType": "address",
          "name": "id",
          "type": "address"
        }
      ],
      "stateMutability": "view",
      "type": "function"
    },
    {
      "inputs": [
        {
          "internalType": "address",
          "name": "_patientID",
          "type": "address"
        }
      ],
      "name": "getRecords",
      "outputs": [
        {
          "components": [
            {
              "internalType": "string",
              "name": "cid",
              "type": "string"
            },
            {
              "internalType": "address",
              "name": "patientID",
              "type": "address"
            },
            {
              "internalType": "address",
              "name": "doctorID",
              "type": "address"
            },
            {
              "internalType": "uint256",
              "name": "timeAdded",
              "type": "uint256"
            }
          ],
          "internalType": "struct EHR.Record[]",
          "name": "",
          "type": "tuple[]"
        }
      ],
      "stateMutability": "view",
      "type": "function"
    },
    {
      "inputs": [
        {
          "internalType": "address",
          "name": "",
          "type": "address"
        }
      ],
      "name": "patients",
      "outputs": [
        {
          "internalType": "address",
          "name": "id",
          "type": "address"
        }
      ],
      "stateMutability": "view",
      "type": "function"
    },
    {
      "inputs": [],
      "name": "ran",
      "outputs": [
        {
          "internalType": "uint256",
          "name": "",
          "type": "uint256"
        }
      ],
      "stateMutability": "view",
      "type": "function"
    },
    {
      "inputs": [],
      "name": "returnRandomVal",
      "outputs": [
        {
          "internalType": "uint256",
          "name": "",
          "type": "uint256"
        }
      ],
      "stateMutability": "nonpayable",
      "type": "function"
    }
  ],
  "bytecode": "0x6080604052348015600f57600080fd5b5061180d8061001f6000396000f3fe608060405234801561001057600080fd5b50600436106100885760003560e01c80636d263ceb1161005b5780636d263ceb1461011557806375a3f4e314610131578063a0076e841461013b578063a9583c221461016b57610088565b80630472f5491461008d5780630869cfbc146100ab578063172847b5146100db57806355dc9c84146100f7575b600080fd5b61009561019b565b6040516100a29190610d9f565b60405180910390f35b6100c560048036038101906100c09190610e2c565b6101a1565b6040516100d29190610e68565b60405180910390f35b6100f560048036038101906100f09190610fc9565b6101df565b005b6100ff61052e565b60405161010c9190610d9f565b60405180910390f35b61012f600480360381019061012a9190610e2c565b610540565b005b61013961079b565b005b61015560048036038101906101509190610e2c565b610925565b60405161016291906111e7565b60405180910390f35b61018560048036038101906101809190610e2c565b610d48565b6040516101929190610e68565b60405180910390f35b60005481565b60016020528060005260406000206000915090508060000160009054906101000a900473ffffffffffffffffffffffffffffffffffffffff16905081565b3373ffffffffffffffffffffffffffffffffffffffff16600260003373ffffffffffffffffffffffffffffffffffffffff1673ffffffffffffffffffffffffffffffffffffffff16815260200190815260200160002060000160009054906101000a900473ffffffffffffffffffffffffffffffffffffffff1673ffffffffffffffffffffffffffffffffffffffff16146102af576040517f08c379a00000000000000000000000000000000000000000000000000000000081526004016102a69061128c565b60405180910390fd5b808073ffffffffffffffffffffffffffffffffffffffff16600160008373ffffffffffffffffffffffffffffffffffffffff1673ffffffffffffffffffffffffffffffffffffffff16815260200190815260200160002060000160009054906101000a900473ffffffffffffffffffffffffffffffffffffffff1673ffffffffffffffffffffffffffffffffffffffff1614610380576040517f08c379a0000000000000000000000000000000000000000000000000000000008152600401610377906112f8565b60405180910390fd5b600060405180608001604052808581526020018473ffffffffffffffffffffffffffffffffffffffff1681526020013373ffffffffffffffffffffffffffffffffffffffff168152602001428152509050600160008473ffffffffffffffffffffffffffffffffffffffff1673ffffffffffffffffffffffffffffffffffffffff16815260200190815260200160002060010181908060018154018082558091505060019003906000526020600020906004020160009091909190915060008201518160000190816104529190611524565b5060208201518160010160006101000a81548173ffffffffffffffffffffffffffffffffffffffff021916908373ffffffffffffffffffffffffffffffffffffffff16021790555060408201518160020160006101000a81548173ffffffffffffffffffffffffffffffffffffffff021916908373ffffffffffffffffffffffffffffffffffffffff1602179055506060820151816003015550507f79439a93ba0b8067e556b3942a78ac58d991c58e2e23041c4e7aa1c446fc11888484336040516105209392919061162f565b60405180910390a150505050565b6000600a600081905550600054905090565b3373ffffffffffffffffffffffffffffffffffffffff16600260003373ffffffffffffffffffffffffffffffffffffffff1673ffffffffffffffffffffffffffffffffffffffff16815260200190815260200160002060000160009054906101000a900473ffffffffffffffffffffffffffffffffffffffff1673ffffffffffffffffffffffffffffffffffffffff1614610610576040517f08c379a00000000000000000000000000000000000000000000000000000000081526004016106079061128c565b60405180910390fd5b8073ffffffffffffffffffffffffffffffffffffffff16600160008373ffffffffffffffffffffffffffffffffffffffff1673ffffffffffffffffffffffffffffffffffffffff16815260200190815260200160002060000160009054906101000a900473ffffffffffffffffffffffffffffffffffffffff1673ffffffffffffffffffffffffffffffffffffffff16036106e0576040517f08c379a00000000000000000000000000000000000000000000000000000000081526004016106d7906116b9565b60405180910390fd5b80600160008373ffffffffffffffffffffffffffffffffffffffff1673ffffffffffffffffffffffffffffffffffffffff16815260200190815260200160002060000160006101000a81548173ffffffffffffffffffffffffffffffffffffffff021916908373ffffffffffffffffffffffffffffffffffffffff1602179055507fa58cff07db0adda3ab7a40bd2f18ab57210bf38391a52ffd2e8eee6b8bdec71a816040516107909190610e68565b60405180910390a150565b3373ffffffffffffffffffffffffffffffffffffffff16600260003373ffffffffffffffffffffffffffffffffffffffff1673ffffffffffffffffffffffffffffffffffffffff16815260200190815260200160002060000160009054906101000a900473ffffffffffffffffffffffffffffffffffffffff1673ffffffffffffffffffffffffffffffffffffffff160361086b576040517f08c379a000000000000000000000000000000000000000000000000000000000815260040161086290611725565b60405180910390fd5b33600260003373ffffffffffffffffffffffffffffffffffffffff1673ffffffffffffffffffffffffffffffffffffffff16815260200190815260200160002060000160006101000a81548173ffffffffffffffffffffffffffffffffffffffff021916908373ffffffffffffffffffffffffffffffffffffffff1602179055507f69908b2e63170aa89ef89719bbe3b4c92cccc38653968ab25f4464eff7c28ac83360405161091b9190610e68565b60405180910390a1565b60603373ffffffffffffffffffffffffffffffffffffffff16600260003373ffffffffffffffffffffffffffffffffffffffff1673ffffffffffffffffffffffffffffffffffffffff16815260200190815260200160002060000160009054906101000a900473ffffffffffffffffffffffffffffffffffffffff1673ffffffffffffffffffffffffffffffffffffffff161480610a5057503373ffffffffffffffffffffffffffffffffffffffff16600160003373ffffffffffffffffffffffffffffffffffffffff1673ffffffffffffffffffffffffffffffffffffffff16815260200190815260200160002060000160009054906101000a900473ffffffffffffffffffffffffffffffffffffffff1673ffffffffffffffffffffffffffffffffffffffff16145b610a8f576040517f08c379a0000000000000000000000000000000000000000000000000000000008152600401610a86906117b7565b60405180910390fd5b818073ffffffffffffffffffffffffffffffffffffffff16600160008373ffffffffffffffffffffffffffffffffffffffff1673ffffffffffffffffffffffffffffffffffffffff16815260200190815260200160002060000160009054906101000a900473ffffffffffffffffffffffffffffffffffffffff1673ffffffffffffffffffffffffffffffffffffffff1614610b60576040517f08c379a0000000000000000000000000000000000000000000000000000000008152600401610b57906112f8565b60405180910390fd5b600160008473ffffffffffffffffffffffffffffffffffffffff1673ffffffffffffffffffffffffffffffffffffffff168152602001908152602001600020600101805480602002602001604051908101604052809291908181526020016000905b82821015610d3c5783829060005260206000209060040201604051806080016040529081600082018054610bf590611347565b80601f0160208091040260200160405190810160405280929190818152602001828054610c2190611347565b8015610c6e5780601f10610c4357610100808354040283529160200191610c6e565b820191906000526020600020905b815481529060010190602001808311610c5157829003601f168201915b505050505081526020016001820160009054906101000a900473ffffffffffffffffffffffffffffffffffffffff1673ffffffffffffffffffffffffffffffffffffffff1673ffffffffffffffffffffffffffffffffffffffff1681526020016002820160009054906101000a900473ffffffffffffffffffffffffffffffffffffffff1673ffffffffffffffffffffffffffffffffffffffff1673ffffffffffffffffffffffffffffffffffffffff16815260200160038201548152505081526020019060010190610bc2565b50505050915050919050565b60026020528060005260406000206000915090508060000160009054906101000a900473ffffffffffffffffffffffffffffffffffffffff16905081565b6000819050919050565b610d9981610d86565b82525050565b6000602082019050610db46000830184610d90565b92915050565b6000604051905090565b600080fd5b600080fd5b600073ffffffffffffffffffffffffffffffffffffffff82169050919050565b6000610df982610dce565b9050919050565b610e0981610dee565b8114610e1457600080fd5b50565b600081359050610e2681610e00565b92915050565b600060208284031215610e4257610e41610dc4565b5b6000610e5084828501610e17565b91505092915050565b610e6281610dee565b82525050565b6000602082019050610e7d6000830184610e59565b92915050565b600080fd5b600080fd5b6000601f19601f8301169050919050565b7f4e487b7100000000000000000000000000000000000000000000000000000000600052604160045260246000fd5b610ed682610e8d565b810181811067ffffffffffffffff82111715610ef557610ef4610e9e565b5b80604052505050565b6000610f08610dba565b9050610f148282610ecd565b919050565b600067ffffffffffffffff821115610f3457610f33610e9e565b5b610f3d82610e8d565b9050602081019050919050565b82818337600083830152505050565b6000610f6c610f6784610f19565b610efe565b905082815260208101848484011115610f8857610f87610e88565b5b610f93848285610f4a565b509392505050565b600082601f830112610fb057610faf610e83565b5b8135610fc0848260208601610f59565b91505092915050565b60008060408385031215610fe057610fdf610dc4565b5b600083013567ffffffffffffffff811115610ffe57610ffd610dc9565b5b61100a85828601610f9b565b925050602061101b85828601610e17565b9150509250929050565b600081519050919050565b600082825260208201905092915050565b6000819050602082019050919050565b600081519050919050565b600082825260208201905092915050565b60005b8381101561108b578082015181840152602081019050611070565b60008484015250505050565b60006110a282611051565b6110ac818561105c565b93506110bc81856020860161106d565b6110c581610e8d565b840191505092915050565b6110d981610dee565b82525050565b6110e881610d86565b82525050565b6000608083016000830151848203600086015261110b8282611097565b915050602083015161112060208601826110d0565b50604083015161113360408601826110d0565b50606083015161114660608601826110df565b508091505092915050565b600061115d83836110ee565b905092915050565b6000602082019050919050565b600061117d82611025565b6111878185611030565b93508360208202850161119985611041565b8060005b858110156111d557848403895281516111b68582611151565b94506111c183611165565b925060208a0199505060018101905061119d565b50829750879550505050505092915050565b600060208201905081810360008301526112018184611172565b905092915050565b600082825260208201905092915050565b7f4f6e6c79207265676973746572656420646f63746f72732063616e207065726660008201527f6f726d207468697320616374696f6e0000000000000000000000000000000000602082015250565b6000611276602f83611209565b91506112818261121a565b604082019050919050565b600060208201905081810360008301526112a581611269565b9050919050565b7f546869732070617469656e7420646f6573206e6f742065786973740000000000600082015250565b60006112e2601b83611209565b91506112ed826112ac565b602082019050919050565b60006020820190508181036000830152611311816112d5565b9050919050565b7f4e487b7100000000000000000000000000000000000000000000000000000000600052602260045260246000fd5b6000600282049050600182168061135f57607f821691505b60208210810361137257611371611318565b5b50919050565b60008190508160005260206000209050919050565b60006020601f8301049050919050565b600082821b905092915050565b6000600883026113da7fffffffffffffffffffffffffffffffffffffffffffffffffffffffffffffffff8261139d565b6113e4868361139d565b95508019841693508086168417925050509392505050565b6000819050919050565b600061142161141c61141784610d86565b6113fc565b610d86565b9050919050565b6000819050919050565b61143b83611406565b61144f61144782611428565b8484546113aa565b825550505050565b600090565b611464611457565b61146f818484611432565b505050565b5b818110156114935761148860008261145c565b600181019050611475565b5050565b601f8211156114d8576114a981611378565b6114b28461138d565b810160208510156114c1578190505b6114d56114cd8561138d565b830182611474565b50505b505050565b600082821c905092915050565b60006114fb600019846008026114dd565b1980831691505092915050565b600061151483836114ea565b9150826002028217905092915050565b61152d82611051565b67ffffffffffffffff81111561154657611545610e9e565b5b6115508254611347565b61155b828285611497565b600060209050601f83116001811461158e576000841561157c578287015190505b6115868582611508565b8655506115ee565b601f19841661159c86611378565b60005b828110156115c45784890151825560018201915060208501945060208101905061159f565b868310156115e157848901516115dd601f8916826114ea565b8355505b6001600288020188555050505b505050505050565b600061160182611051565b61160b8185611209565b935061161b81856020860161106d565b61162481610e8d565b840191505092915050565b6000606082019050818103600083015261164981866115f6565b90506116586020830185610e59565b6116656040830184610e59565b949350505050565b7f546869732070617469656e7420616c7265616479206578697374730000000000600082015250565b60006116a3601b83611209565b91506116ae8261166d565b602082019050919050565b600060208201905081810360008301526116d281611696565b9050919050565b7f5468697320646f63746f7220616c726561647920657869737473000000000000600082015250565b600061170f601a83611209565b915061171a826116d9565b602082019050919050565b6000602082019050818103600083015261173e81611702565b9050919050565b7f53656e646572206d7573742062652061207265676973746572656420646f637460008201527f6f72206f722070617469656e7400000000000000000000000000000000000000602082015250565b60006117a1602d83611209565b91506117ac82611745565b604082019050919050565b600060208201905081810360008301526117d081611794565b905091905056fea264697066735822122057d358725bbe6953452c62029a67ae2d065b7487cc07e5665bc432290143ab5664736f6c634300081b0033",
  "linkReferences": {},
  "deployedLinkReferences": {}
}